:020000040800F2
:100000001012002001010008B11100084B0C00087B
:10001000AD110008E1070008AB1A0008000000005D
:10002000000000000000000000000000671500084C
:10003000E507000800000000A11200088D16000866
:100040001701000817010008170100081701000830
:100050001701000817010008170100081701000820
:100060001701000817010008170100081701000810
:100070001701000817010008170100081701000800
:1000800017010008170100081701000817010008F0
:1000900017010008170100081701000817010008E0
:1000A00017010008170100081701000817010008D0
:1000B000F1160008151700081701000817010008BD
:1000C00017010008170100081701000817010008B0
:1000D0001701000889170008C91700080D18000843
:1000E000170100081701000817010008DFF80CD0FD
:1000F00000F038FA004800472526000810120020BA
:1001000005480047FEE7FEE7FEE7FEE7FEE7FEE7FD
:10011000FEE7FEE7FEE7FEE7ED000008D2B201E0F1
:1001200000F8012B491EFBD270470022F6E710B5FC
:1001300013460A4604461946FFF7F0FF204610BD55
:1001400030B505462A460B4612F8010B13F8014B51
:1001500008B1A042F8D01CB1002802D06D1CF1E714
:10016000284630BD30B50B46014600202022012430
:1001700009E021FA02F59D4205D303FA02F5491B75
:1001800004FA02F52844151EA2F10102F1DC30BD8B
:100190002DE9F05F0546002092469B4688460646BC
:1001A000814640241BE0284641464746224600F04F
:1001B000FAF953465A46C01A914110D311461846CF
:1001C000224600F0E1F92D1A67EB01084F4622465E
:1001D0000120002100F0D8F917EB00094E41201E44
:1001E000A4F10104DFDC484631462A464346BDE817
:1001F000F09F2DE9FE4F804681EA0300C00F0C46B8
:10020000009021F0004123F00045B8EB0200A94125
:1002100005D24046214690461C460B46024623F036
:100220000040104347D0270DC7F30A00C3F30A511B
:100230000290401A019040286BDAC3F3130040F497
:10024000801B0098924620B10023D2EB030A63EB97
:100250000B0B01985946C0F14002504600F094F94A
:1002600006460D4650465946019A00F0ACF910EB8F
:1002700008006141002487EA115284EAE7731A43B7
:1002800040D0009A62B3019A012A4FEA075215DC66
:10029000001B61EB02014FF0004202EA0752CDE978
:1002A0000042001C41F5801132462B4600F0ACF9AB
:1002B00003B0BDE8F08F40462146F9E7001B61EB33
:1002C0000201001C41F5801300185B412018A2F5C3
:1002D000001747EB030140EAD570B6196D4111E0F4
:1002E0006D084FEA360645EAC0754FEA0752001B13
:1002F00061EB0201001C41F5801149084FEA300012
:100300000019514132462B4603B0BDE8F04F00F0D2
:100310006CB90098012240000023D0EB020263EB8D
:10032000E073009821464FEAE074B8EB000061EBFF
:100330000401E9E783F000435BE781F0004158E7FF
:100340002DE9FE4F81EA030404F0004421F000414E
:1003500000944FF0000B23F0004350EA01045ED0FC
:1003600052EA03045BD0C3F30A54C1F30A552C4488
:10037000A4F2F3340194A0FB0254C1F3130141F43D
:100380008011C3F3130343F4801301FB024400FB09
:10039000034E840A970A44EA815447EA8357A4FB30
:1003A000076802958D0A05FB07854FEA932C04FB2D
:1003B0000C542705029D4FEA065847EA1637B5EB5D
:1003C00008056EEB070C870E920E47EA811742EA8A
:1003D0008312A7FB0201B6EB0B0164EB00042B0DAB
:1003E00043EA0C335E1844EB1C50DA465146E7FBF7
:1003F0000201C5F313044FEA0B3343EA14534FEAE7
:100400000432019C43EA0603A4F10C040294009C0C
:10041000CDE900B400F0F8F803B0BDE8F08F00209B
:100420000146F9E72DE9F04D81EA030404F0004BA1
:1004300021F0004514464FF0000A23F0004150EA35
:10044000050220D054EA01021DD0C5F30A57024626
:10045000C5F31303C1F31300C1F30A5640F480152A
:1004600043F48013A7EB0608101BD64608F2FD38AC
:1004700073EB050002D308F1010801E092185B411B
:10048000B8F1000F03DA00200146BDE8F08D00202E
:100490004FF48011064684460EE0171B73EB0507E8
:1004A00005D3121B63EB050306434CEA010C490814
:1004B0004FEA300092185B4150EA0107EDD152EA51
:1004C000030012D082EA040083EA0501084305D044
:1004D000101BAB4106D20122002306E000224FF0A0
:1004E000004302E06FF0010253101AEB06004CEBE0
:1004F000085110EB0A0041EB0B01BDE8F04D00F094
:1005000074B8C1F30A52C1F3130140F2FF3341F44E
:1005100080119A4202DA00200146704740F23343CC
:100520009A42A2F2334202DC524200F03CB800F0A0
:100530002BB8000030B5041E71F1000404DB4FF04D
:100540000044404264EB0101141E73F1000405DB1A
:100550001C464FF00043524263EB0403994208BF2C
:10056000904230BD064C074D06E0E06840F00103C4
:1005700094E8070098471034AC42F6D3FFF7BAFD71
:10058000B02F0008D02F0008202A04DB203A00FA00
:1005900002F1002070479140C2F1200320FA03F3DA
:1005A000194390407047202A04DB203A21FA02F0D8
:1005B0000021704721FA02F3D040C2F1200291409D
:1005C000084319467047202A06DBCB17203A41FA28
:1005D00002F043EAE07306E041FA02F3D040C2F1D0
:1005E0002002914008431946704710B5141E73F15C
:1005F000000408DA401C41F1000192185B411A43E3
:1006000001D120F0010010BD2DE9F04D92469B462E
:1006100011B1B1FA81F202E0B0FA80F220329046D4
:10062000FFF7B2FF04460F4640EA0A0041EA0B0119
:1006300053465A46084313D0114653EA010019D0D5
:10064000C8F140025046FFF7AEFF05460E46504641
:1006500059464246FFF798FF084305D0012004E0C1
:1006600020463946BDE8F08D0020054346EAE07695
:100670002C4337430A986305E40AA0EB08000022E4
:10068000FD0A44EA47540A3002D500200146E9E752
:10069000010510196941DDE9084500196941BDE806
:1006A000F04DA2E710B500240DA1104801F0FFF9AC
:1006B00000F02AF80446002C05DD22460CA10B4868
:1006C00001F0F5F903E00CA1084801F0F0F94FF44E
:1006D0007A7001F0B7FE0BA1044801F0E8F910BDF3
:1006E0005075742046696E676572000000480040CE
:1006F0004144443A25640000414444204661696C09
:10070000000000002000000010B5012023494872BD
:1007100006E000F037F900F097F9642001F092FE4E
:100720001E48407A0028F4D100F078F800F08CF9E7
:1007300001201A49487206E000F024F900F084F91B
:10074000642001F07FFE1548407A0028F4D100F0C3
:1007500075F800F079F91148407AE8B900F022F90B
:1007600000F072F900F07CFD0D4908700846007831
:10077000401C0870084600780A490880084800783C
:1007800000F020F900F060F90448407A10B90448FC
:10079000007810BD0020FCE70020FAE7000E0020E2
:1007A000540000205200002008B50121042000F070
:1007B00099FD4FF48070ADF8000003208DF8020021
:1007C00010208DF803006946034800F05DF9012010
:1007D0000249086008BD000000080140A001214254
:1007E00000BFFEE77047000010B5002405E009498E
:1007F000085D00F0B9FE601CC4B2062CF7DB0024D3
:1008000005E00549085D00F0AFFE601CC4B2062C8F
:10081000F7DB10BD5C0000208700002010B500F061
:1008200005F9002405E00449085D00F09DFE601C08
:10083000C4B2072CF7DB10BD7300002010B50024F4
:1008400005E00949085D00F08FFE601CC4B2062C6B
:10085000F7DB002405E00549085D00F085FE601C1B
:10086000C4B2072CF7DB10BD5C0000207A0000202A
:1008700030B5044604254FF4302000F06FF80546EB
:10088000042D17D10C48006940F002000A490861A4
:1008900008464461006940F0400008614FF4302090
:1008A00000F05CF805460448006941F6FD71084017
:1008B00001490861284630BD0020024004200B4950
:1008C000C96801F0010109B101200EE00749C968BA
:1008D00001F0040109B1022007E00449C96801F0F0
:1008E000100109B1032000E00420704700200240FD
:1008F0000348006940F0800001490861704700002A
:100900000020024070B504460D460426F00200F0B7
:1009100025F80646042E11D10948006940F001006F
:10092000074908612580F00200F018F806460448DF
:10093000006941F6FE71084001490861304670BD0A
:10094000002002400248034948600348486070475D
:100950002301674500200240AB89EFCD00B5024678
:100960000423FFF7ABFF034603E0FFF7A7FF0346AF
:10097000521E012B01D1002AF7D102B905231846D6
:1009800000BD000010B500F051F8002405E0044956
:10099000085D00F0E9FD601CC4B2062CF7DB10BD59
:1009A0006200002010B500F041F8002405E0044981
:1009B000085D00F0D9FD601CC4B2062CF7DB10BD49
:1009C0008100002070B505460026280A0E494871AE
:1009D0008D71002404E00C48005D0644601CC4B224
:1009E000072CF8DB300A0849C8710E7200F01EF8B7
:1009F000002405E00449085D00F0B6FD601CC4B2A7
:100A0000092CF7DB70BD00009700002010B500F046
:100A10000DF8002405E00449085D00F0A5FD601C08
:100A2000C4B20B2CF7DB10BD6800002010B5002409
:100A300004E00449085D00F097FD641C062CF8DB17
:100A400010BD00005C00002010B54FF47A74012046
:100A50000B49487200200B49087000BF0AE00120D2
:100A600001F0F0FC074800780A2803DB0A2001F0B7
:100A7000E9FC03E02000A4F10104F0D100BF10BDA7
:100A8000000E0020550000202DE9F041024600250F
:100A90000026002000230024002791F803C00CF05A
:100AA0000F0591F803C00CF0100CBCF1000F03D03F
:100AB00091F802C04CEA050591F800C0BCF1000FA6
:100AC00031D0146800202BE04FF0010C0CFA00F339
:100AD000B1F800C00CEA03069E4220D183004FF01B
:100AE0000F0C0CFA03F7BC4305FA03FC4CEA0404B0
:100AF00091F803C0BCF1280F06D14FF0010C0CFA9D
:100B000000FCC2F814C00AE091F803C0BCF1480F21
:100B100005D14FF0010C0CFA00FCC2F810C0401CCB
:100B20000828D1D31460B1F800C0BCF1FF0F34DD48
:100B3000546800202EE000F1080C4FF0010808FA7C
:100B40000CF3B1F800C00CEA03069E4221D18300E9
:100B50004FF00F0C0CFA03F7BC4305FA03FC4CEA08
:100B6000040491F803C0BCF1280F05D100F1080C72
:100B700008FA0CF8C2F8148091F803C0BCF1480FD1
:100B800007D100F1080C4FF0010808FA0CF8C2F880
:100B90001080401C0828CED35460BDE8F0810000CE
:100BA000F0B50A46002300240021002500F000468D
:100BB000B6F1004F02D11D4EF16901E01B4E716884
:100BC000C0F3034583B200F44016B6F5401F08D1C8
:100BD00021F07061154E766826F07066134F7E60C6
:100BE00012E000F48016B6F5801F06D1032606FA3F
:100BF00005F4A14341F0706106E0460D360103FAA9
:100C000006F6B14341F0706122B1460D360103FA98
:100C100006F6314300F00046B6F1004F02D1034E14
:100C2000F16101E0014E7160F0BD00000000014083
:100C30000246002093680B400BB1012000E0002029
:100C40007047416170470161704700BFFEE70000D7
:100C500008B501210D2000F045FB01213548FFF7C3
:100C60009FFF1020ADF800008DF8030003208DF8E1
:100C7000020069463048FFF707FF2020ADF800006A
:100C800010208DF8030003208DF8020069462A48E1
:100C9000FFF7FAFE4020ADF8000010208DF80300A9
:100CA00003208DF8020069462348FFF7EDFE10206F
:100CB0008DF8030003208DF802008020ADF80000BD
:100CC00069461D48FFF7E0FE0120ADF8000028202E
:100CD0008DF8030003208DF8020069461748FFF7DE
:100CE000D3FE0220ADF8000028208DF80300032079
:100CF0008DF8020069461148FFF7C6FE0820ADF8DE
:100D0000000028208DF8030003208DF802006946BA
:100D10000A48FFF7B9FE28208DF8030003208DF85C
:100D200002001020ADF8000069460448FFF7ACFE51
:100D300008BD00000002300000080140000C014026
:100D400070B51021FE48FFF77EFF2021FC48FFF719
:100D50007AFF4021FA48FFF776FF8021F848FFF735
:100D600072FF0121F748FFF763FF05460221F548AE
:100D7000FFF75EFF05430821F248FFF759FF0543DF
:100D80001021F048FFF754FF054315B94FF0FF302D
:100D900070BD0A2001F056FB0121EA48FFF748FF29
:100DA00005460221E748FFF743FF05430821E548D0
:100DB000FFF73EFF05431021E248FFF739FF0543E7
:100DC00015B94FF0FF30E3E71021DD48FFF739FF99
:100DD0002021DB48FFF735FF4021D948FFF731FFDD
:100DE0008021D748FFF72FFF0121D648FFF720FFCA
:100DF000D54908700221D348FFF71AFFD34908707C
:100E00000821D048FFF714FFD14908701021CD48C0
:100E1000FFF70EFFCF490870CB480078012809D1B1
:100E2000CA48007830B9CA48007818B9084600782E
:100E300000B92A24C448007850B9C4480078012871
:100E400006D1C348007818B9C248007800B9002418
:100E5000BD48007850B9BD48007838B9BC48007822
:100E600020B9BC480078012800D14424B648007855
:100E700050B9B648007838B9B5480078012803D190
:100E8000B448007800B9232400BF0121AD48FFF722
:100E9000CFFE05460221AB48FFF7CAFE05430821F5
:100EA000A848FFF7C5FE05431021A648FFF7C0FE7E
:100EB0000543002DE9DC1021A148FFF7C4FE2021E5
:100EC0009F48FFF7BEFE40219D48FFF7BAFE8021F4
:100ED0009B48FFF7B6FE01219A48FFF7A9FE9A4901
:100EE000087002219748FFF7A3FE9849087008216F
:100EF0009448FFF79DFE9649087010219148FFF72E
:100F000097FE9449087090480078012809D18F48CD
:100F1000007830B98E48007818B90846007800B9D2
:100F200001248948007850B988480078012806D102
:100F30008748007818B98748007800B902248248A9
:100F4000007850B98148007838B981480078012884
:100F500003D18048007800B903247B48007850B959
:100F60007A48007838B97A48007820B9794800780A
:100F7000012800D1412400BF01217248FFF758FE2B
:100F8000054602216F48FFF753FE054308216D48CF
:100F9000FFF74EFE054310216A48FFF749FE05435F
:100FA000002DE9DC10216648FFF74BFE2021644844
:100FB000FFF749FE40216248FFF743FE8021604869
:100FC000FFF73FFE01215F48FFF732FE5E490870E0
:100FD00002215C48FFF72CFE5C4908700821594843
:100FE000FFF726FE5A49087010215648FFF720FEE9
:100FF0005849087054480078012809D153480078AE
:1010000030B95348007818B90846007800B904246C
:101010004D48007850B94D480078012806D14C4819
:10102000007818B94B48007800B905244648007884
:1010300050B94648007838B945480078012803D1AE
:101040004448007800B906243F48007850B93F482A
:10105000007838B93E48007820B93E480078012829
:1010600000D1422400BF01213648FFF7E1FD0546CB
:1010700002213448FFF7DCFD054308213148FFF722
:10108000D7FD054310212F48FFF7D2FD0543002D62
:10109000E9DC10212A48FFF7D4FD20212848FFF77A
:1010A000D0FD40212648FFF7CEFD80212448FFF7E0
:1010B000C8FD01212348FFF7BBFD23490870022129
:1010C0002048FFF7B5FD2149087008211D48FFF7AA
:1010D000AFFD1F49087010211A48FFF7A9FD1D49EF
:1010E000087019480078012809D11848007830B9EB
:1010F0001748007818B90846007800B90724124844
:10110000007850B911480078012806D110480078BD
:1011100018B91048007800B908240B48007850B975
:101120000A48007838B90A480078012803D10948EC
:10113000007800B9092404480078B8B903480BE0E6
:1011400000080140000C014046000020470000203C
:101150004800002049000020007838B91048007885
:1011600020B910480078012800D1432400BF012194
:101170000D48FFF75DFD054602210B48FFF758FDBE
:10118000054308210848FFF753FD05431021064891
:10119000FFF74EFD0543002DE9DC2046F8E5000091
:1011A0004800002049000020000C014000BFFEE77D
:1011B0007047000070B5002100230F22C47804B3EB
:1011C000154C246804F4E064C4F5E064210AC1F11C
:1011D0000403CA40447804FA03F18478144021439C
:1011E00009010E4C0678A155047804F01F0501246E
:1011F000AC4005786D11AD0005F1E025C5F8004162
:1012000009E0047804F01F050124AC40044D067881
:10121000761145F8264070BD0CED00E000E400E0DA
:1012200080E100E002490143024A1160704700007A
:101230000000FA050CED00E010B5FFF7D5FA00202C
:1012400005490870FFF700FC0448407A08B90020FF
:1012500010BD0120FCE7000054000020000E00201B
:1012600010B5FFF7E3FB002405E00B49085D00F033
:101270007BF9601CC4B2062CF7DBFFF7E5FB0748DF
:10128000407A30B90548C17A807A01EB002080B2FB
:1012900010BD4FF6FF70FBE756000020000E002047
:1012A0007047000029B1064AD2690243044BDA6153
:1012B00004E0034AD2698243014BDA6170470000BF
:1012C0000010024029B1064A12690243044B1A6118
:1012D00004E0034A12698243014B1A61704700001F
:1012E0000010024029B1064A92690243044B9A61F8
:1012F00004E0034A92698243014B9A6170470000FF
:101300000010024029B1064AD2680243044BDA6059
:1013100004E0034AD2688243014BDA607047000060
:101320000010024030B500210022002400232D4D82
:101330006D6805F00C0121B1042905D0082923D1DD
:1013400005E0294D056022E0274D05601FE0254D91
:101350006D6805F47012234D6D6805F48034022524
:1013600005EB92421CB9214D554305600BE01D4D24
:101370006D6805F400351DB11C4D5543056002E054
:10138000194D5543056002E0174D056000BF00BFD1
:10139000144D6D6805F0F0010909154D6B5C056889
:1013A000DD4045600F4D6D6805F4E061090A104DA0
:1013B0006B5C4568DD4085600A4D6D6805F46051E1
:1013C000C90A0B4D6B5C4568DD40C560054D6D6815
:1013D00005F44041890B074D6B5CC568B5FBF3F51F
:1013E000056130BD0010024000127A0000093D0086
:1013F000280000203800002008B501210820FFF750
:1014000071FF4FF40070ADF8000003208DF802006A
:1014100014208DF8030069460348FFF735FB0020D0
:101420000249086008BD0000000C0140A48121426F
:1014300030B503460C461546002207E0184600F07A
:1014400008F824F812009B1C501C82B2AA42F5DB5B
:1014500030BD0146088870472DE9F05F80468A4616
:101460001746B8F1006F02D33348804501D3BDE879
:10147000F09FFFF767FAA8F1006B4FEA9B25CBF3CB
:101480004809C9F50074A74200DC3C464DE04FF026
:10149000006101EB85208A142849FFF7C9FF002667
:1014A0000BE009EB0600254931F810004FF6FF71FB
:1014B000884200D003E0701C86B2A642F1DB00BF78
:1014C000A6421BDA4FF0006101EB8520FFF7D0F94F
:1014D000002608E03AF8160006EB0901174A22F840
:1014E0001100701C86B2A642F4DB4FF0006101EBE4
:1014F00085208A14114900F023F804E02246514661
:10150000404600F01DF8A74200D10FE06D1C4FF0DF
:1015100000090AEB440AA044381B87B2B7F5007FE4
:1015200002DD4FF4007400E03C46B0E700BFFFF777
:10153000DFF900BF9BE7000000000108000A00205F
:101540002DE9F04105460E461746002407E036F81F
:1015500014102846FFF7D6F9AD1C601C84B2BC42BB
:10156000F5DBBDE8F081704710B50446214602481E
:1015700000F0C1FA10BD00000044004010B500F0BA
:1015800001F810BD0CB500200190009033480068B0
:1015900040F480303149086000BF3048006800F4F2
:1015A000003000900198401C0190009818B90198F3
:1015B000B0F5A06FF1D12948006800F4003010B1F7
:1015C0000120009001E0002000900098012843D104
:1015D0002348006840F01000214908600846006870
:1015E00020F0030008600846006840F00200086030
:1015F0001A484068194948600846406848600846EB
:10160000406840F4806048600846406820F47C10E0
:1016100048600846406840F4E810486008460068A2
:1016200040F08070086000BF0C48006800F0007057
:101630000028F9D00948406820F0030007494860B5
:101640000846406840F00200486000BF0348406818
:1016500000F00C000828F9D10CBD00000010024079
:1016600000200240042808D14FF0E021096941F030
:1016700004014FF0E022116107E04FF0E021096919
:1016800021F004014FF0E022116170477047000023
:1016900010B51348006840F0010011490860084681
:1016A0004068104908400E494860084600680E49E5
:1016B00008400B4908600846006820F48020086054
:1016C0000846406820F4FE0048604FF41F00886020
:1016D000FFF754FF4FF000600449086010BD0000A0
:1016E000001002400000FFF8FFFFF6FE08ED00E0EA
:1016F00010B50121880700F036F840B101218807B4
:1017000000F022F802480078401C0149087010BD22
:101710005100002010B50121094800F024F868B1FB
:101720000848008840F40040064908800121044828
:1017300000F00AF80021024800F009F810BD00008E
:101740000004004042000020CA430282704721B1D9
:10175000028842F00102028004E002884FF6FE7324
:101760001A400280704730B5024600200023002452
:10177000158A05EA0103958905EA010413B10CB144
:10178000012000E0002030BD10B540F225510B488B
:1017900000F0C7F880B10948001D0088C4B20848AD
:1017A0000088B0F5C87F07DA054801880088401C2A
:1017B000034A10800348445410BD00000038014023
:1017C00040000020A000002010B540F225510C4838
:1017D00000F0A7F890B10A4800F05EF9C4B20948D9
:1017E00001780078401C074A10700748445410469E
:1017F00000780F2802DD0F201146087010BD000090
:101800000044004055000020000E002010B540F2BA
:1018100025510D4800F085F8A0B10B48001D008847
:10182000C4B20A480088B0F5C87F08DA07480188C2
:101830000088401C054A10800548445402E00020FE
:101840000249088010BD000000480040440000200C
:10185000E006002021B1828942F40052828104E036
:1018600082894DF6FF731A408281704710B5044695
:101870002048844209D101218803FFF743FD00215C
:101880004FF48040FFF73EFD32E01B48844209D10F
:1018900001214804FFF716FD00214FF40030FFF747
:1018A00011FD25E01548844209D101218804FFF784
:1018B00009FD00214FF48020FFF704FD18E01048D7
:1018C000844209D10121C804FFF7FCFC00214FF438
:1018D0000020FFF7F7FC0BE00A48844208D1012101
:1018E0000805FFF7EFFC00214FF48010FFF7EAFC3A
:1018F00010BD000000380140004400400048004096
:10190000004C00400050004002460020B1F5007F2E
:1019100000D100BF13880B400BB1012000E0002074
:10192000704770B50246002400230025002040F6D1
:101930006A16B14200D100BFC1F3421501F01F0386
:10194000012606FA03F3012D02D19689334006E001
:10195000022D02D1168A334001E0968A33400C12E0
:10196000012606FA04F41688344013B10CB10120A4
:1019700000E0002070BDF0B50346002400260025DD
:10198000002040F66A17B94200D100BF1846C1F3E3
:10199000421401F01F06012707FA06F5012C01D1B8
:1019A0000C3004E0022C01D1103000E014301AB1E8
:1019B00007682F43076002E00768AF430760F0BD88
:1019C0002DE9F04786B005460E460024A24600BF2A
:1019D000A1460027B08900B100BF2F462C8A4CF6E3
:1019E000FF700440F08804432C82AC894EF6F3105B
:1019F0000440B08831890843718908430443AC81AD
:101A0000AC8A4FF6FF400440B0890443AC8201A881
:101A1000FFF788FC1F48874202D1DDF810A001E0E3
:101A2000DDF80CA0A88900F4004040B10AEBCA0020
:101A300000EB0A1031684900B0FBF1F807E00AEB4F
:101A4000CA0000EB0A1031688900B0FBF1F864208D
:101A5000B8FBF0F004012009642101FB1089A8897A
:101A600000F4004040B1322000EBC900B0FBF1F0BF
:101A700000F00700044308E0322000EB0910642165
:101A8000B0FBF1F000F00F0004432C8106B0BDE87C
:101A9000F08700000038014001468888C0F3080044
:101AA0007047C1F308028280704700BFFEE70FB4A1
:101AB00030B5CBB0054601AC50A800904FF49471FE
:101AC00001A8009B4F9A00F025F8002000900BE041
:101AD00014F8011B2846FFF7E4FF00BF4021284609
:101AE000FFF712FF0028F9D020780028F0D14BB082
:101AF00030BC5DF814FB70B504460D4629462046FF
:101B0000FFF7CFFF00BF40212046FFF7FDFE002872
:101B1000F9D070BD7CB5491E1C461546CDE90001C3
:101B2000044B6A462146284600F0C8F8009A002176
:101B300011707CBDEB23000802E008C8121F08C129
:101B4000002AFAD170477047002001E001C1121F3E
:101B5000002AFBD1704700002DE9FF5FDDE902207C
:101B6000010DDDF838B0024318D044F61050A1F250
:101B7000FF3141430D140F98012820D0A5EB0B0035
:101B8000401C5FEA000A4FF00004474EDFF81C914A
:101B9000A046504616D5CAF1000728E00F98012448
:101BA00043A2012808D0002100980F9BC0E9002122
:101BB000C0E90243BDE8FF9F6FEA0B01F4E7CBF1F8
:101BC0000000DEE7074612E0F80707D0224633465A
:101BD00040464946FEF7B4FB8046894622463346D6
:101BE00010461946FEF7ACFB04460E467F10002F48
:101BF000EAD1DDE90201BAF1000F42464B4602DAB2
:101C0000FEF79EFB01E0FEF70DFC04460E460022A7
:101C1000284BFEF78FFC03D84FF0FF30014607E05A
:101C20000022254B20463146FEF7E3FAFEF769FC19
:101C3000102409E0002C0ADB0A220023FEF7A8FA90
:101C4000019B30321A55641E50EA0102F2D1641C25
:101C5000019AC4F1110314440F9A012A03D00122FE
:101C600008430DD10AE0084304D000204FF0110BC7
:101C70000F9080E7A3EB0B056D1E0DE05B4504DDC7
:101C80004FF0000205F1010504E003DA4FF0000215
:101C9000A5F10105002AECD000980F99C0E90231A6
:101CA000C0E9004586E70000000024400000F03F46
:101CB000300000000000F0430000E03F2DE9FF4F3E
:101CC00095B09B468946064600250FE2252877D128
:101CD00000242746F84A0121059400E0044316F841
:101CE000013F203B01FA03F01042F7D130782A2857
:101CF00011D06FF02F033078A0F13002092A16D8E6
:101D0000059A44F0020402EB820203EB4202104403
:101D1000761C0590EFE759F8042B0592002A03DAA8
:101D2000504244F40054059044F00204761C30788C
:101D30002E2816D116F8010F44F004042A280DD0DD
:101D40006FF02F023078A0F13003092B09D807EB90
:101D5000870302EB4303C718761CF3E759F8047BAB
:101D6000761C30786C280FD006DC4C2817D06828F9
:101D70000DD06A2814D104E0742810D07A280FD12D
:101D80000DE044F400140AE044F4801401E044F44B
:101D900040147278824202D104F58014761C761CBD
:101DA000307866280BD013DC582877D009DC00285F
:101DB00075D04528F6D04628F4D047281AD19DE1A1
:101DC00018E0632835D0642879D0652812D195E1D0
:101DD000702873D008DC6728F1D069286FD06E288E
:101DE0000DD06F2806D1B5E073282CD0752875D09A
:101DF000782874D05A46179990476D1C75E1C4F342
:101E00000250022809D003280DD0D9F80010042868
:101E10000DD00D6009F1040967E1D9F80010EA1747
:101E2000C1E90052F6E7D9F800100D80F2E70D7015
:101E3000F0E719F8041B8DF8001000208DF8010060
:101E4000EA46012003E059F804AB4FF0FF30610788
:101E50004FF0000102D40DE008F101018846B942BB
:101E60000FDA8045F8DB1AF808100029F4D108E0F1
:101E700008F1010188468142FADB1AF808100029AE
:101E8000F6D105985B46A0EB080721463846179A1D
:101E900000F094FA284400EB080507E04DE029E142
:101EA0000DE01AF8010B5A4617999047B8F101084E
:101EB000F7D25B4621463846179A13E142E00A22E0
:101EC0000092C4F302524FF0000A022A08D059F8D7
:101ED00004CB032A4FEAEC710AD00DE029E02AE096
:101EE00009F1070121F00702F2E802C1914609E079
:101EF0000FFA8CFC4FEAEC71042A03D14FFA8CFCE8
:101F00004FEAEC71002907DA0A460021DCF1000CE7
:101F100061EB02012D2202E0220504D52B228DF86F
:101F20000420012203E0E20701D02022F7E79046D7
:101F300059E00A2102E010220DE010214FF0000AC2
:101F400000910BE010224FF0000A44F0040408272F
:101F5000009203E008224FF0000A0092C4F30252FC
:101F6000022A05D059F804CB0021032A08D009E041
:101F700009F1070121F00702F2E802C1914605E0EC
:101F80001FFA8CFC042A01D10CF0FF0C4FF0000862
:101F9000220728D5702806D0009B83F0100353EA4F
:101FA0000A0305D00EE040228DF80420012208E04B
:101FB0005CEA010206D030228DF804208DF805007D
:101FC00002229046009B83F0080353EA0A030AD1D9
:101FD0005CEA010201D1620705D530228DF80420A8
:101FE0004FF001087F1E582804D034A003900EA89B
:101FF00002900DE036A0F9E753466046009AFEF7DE
:10200000C7F884460398825C0298401E02900270D2
:102010005CEA0100F0D1029806A9081A00F1200A32
:10202000600702D524F4803400E00127574502DD23
:10203000A7EB0A0000E0002000EB0A0100900598E1
:102040004144401A0590E00306D45B462146179AA6
:10205000059800F0B3F90544002706E001A85A46A8
:10206000C05D179990476D1C7F1C4745F6DBE00368
:102070000CD55B462146179A059800F09FF9054458
:1020800004E030205A46179990476D1C0099481E6D
:1020900000900029F5DC08E0029802995A46007881
:1020A000491C0291179990476D1CBAF10001AAF1E1
:1020B000010AF1DC65E1000009280100303132330A
:1020C0003435363738396162636465660000000074
:1020D000303132333435363738394142434445465E
:1020E0000000000000F058F90544761C3078002804
:1020F0007FF4ECAD19B02846BDE8F08F620700D43C
:10210000062709F1070222F0070CFCE80223E1464A
:1021100003F000485FEA080C02D00FF2702C0DE0CB
:102120005FEA045C02D50FF2682C07E05FEAC47C2A
:1021300002D00FF2602C01E0AFF2700C4FF0FF38CC
:1021400023F00043CDF850C065280CD006DC4528AC
:1021500009D046281DD047283DD13DE0662818D03B
:1021600067287ED138E00021112F01DB112000E02B
:10217000781CCDE9000106A90EA8FFF7EDFCDDE90A
:102180000F010E9A03910021009207F1010A0491B8
:102190004DE04FF000400097CDE9011006A90EA8D0
:1021A000FFF7DAFCDDE90F0203920E9B1199002282
:1021B000DDF80CA00093049211B9791C00EB010A20
:1021C000B7EB0A0004D4C0F1FF3007F1010A049014
:1021D000AAEB0700019044E0012F00DA012700215B
:1021E000112F01DD112000E03846CDE9000106A9DC
:1021F0000EA8FFF7B1FCDDE90F010E9A0391002153
:1022000004910092BA4621070CD40399514500DA93
:102210008A46BAF1010F05DD009AAAF10101515C6D
:10222000302908D0B84202DA10F1040F06DA012191
:10223000CDE9011015E0AAF10101E9E7002805DC6C
:10224000049901440491AAEB000102E0411C5145AC
:1022500000DD8A460499401A401C01904FF000406E
:102260000290200704D40198504501DBCDF804808A
:1022700000208DF84F0002980DF14F07B0F1004F8C
:1022800025D02B200E9002984FF0020800280CDA7F
:10229000404202902D200E9007E00A210298FDF79F
:1022A00061FF3031029007F8011DB8F10001A8F17B
:1022B0000108F2DC02980028EFD1791E0E98087010
:1022C000307800F0200040F0450007F8020D12A819
:1022D000C01B00F107081498007800B1012000EB42
:1022E0000A01019801EBE07105984144401A401E33
:1022F0000590E00306D45B462146179A059800F046
:102300005DF805441498007818B15A46179990471B
:102310006D1CE00324D55B462146179A059800F012
:102320004DF805441CE00498002807DBDDE90301B3
:10233000884203DD0098405C179901E0179930202E
:102340005A469047049805F10105401C04900198F5
:10235000401E019004D12E205A46179990476D1CBB
:10236000BAF10001AAF1010ADDDC05E017F8010B62
:102370005A46179990476D1CB8F10001A8F1010861
:10238000F4DC5B462146179A0598ABE62D00000069
:102390002B000000200000002DE9F041044600253C
:1023A0001E461746880404D405E039462020B0476D
:1023B0006D1C641EF9D52846BDE8F0812DE9F04179
:1023C000044600251E469046C80301D5302700E08C
:1023D0002027880404D505E041463846B0476D1CE7
:1023E000641EF9D52846BDE8F0814A68002A06D067
:1023F0000A68531C0B6010704868401E48607047A4
:1024000010B56FF00400FFF72DF90A4800680A497B
:10241000B0FBF1F0094908700846007800EB400174
:10242000C1EBC0104FF6FF7101EAC00004490880FB
:1024300010BD00001400002000127A003C000020B3
:102440003E0000200146114A12884A434FF0E02323
:102450005A6100229A611A46126942F001021A6119
:1024600000BF4FF0E022106900F001021AB100F441
:102470008032002AF5D04FF0E022126922F00102EA
:102480004FF0E0231A6100229A6170473E0000205D
:1024900010B50C480088052812DD0A20FFF7D2FF8E
:1024A00009A10B48FDF74CFE10B101200949087045
:1024B0000020044908804FF4C8710548FDF735FE37
:1024C00010BD0000440000207375636365737300E2
:1024D000E00600200400002010B525E0FEF730FCE7
:1024E0001449086008460068412802D0422812D1E9
:1024F00002E0FEF7D7F816E0FEF79EFE0EA11348A5
:10250000FFF7D5FA40F2A460FFF79CFF10A10F4837
:10251000FFF7CDFA07E00FA10C48FFF7C8FAC82073
:10252000FFF790FF00BF00BF024800682A28D5D1FE
:1025300010BD00000000002044656C657420414C13
:102540004C2046696E67657200000000004800403C
:102550002020000046696E6765722041646D696ED7
:102560000000000010B500F003FC0446B4F5967FAF
:1025700017DA01201A4908701AA11E48FFF797FAC6
:1025800022461DA11E48FFF792FA00201D4908703F
:102590004FF47A70FFF756FF4FF47A70FFF752FF4F
:1025A0001DE04FF6FF70844219D117A11148FFF7C3
:1025B0007EFA224618A11248FFF779FA4FF47A7092
:1025C000FFF740FF4FF47A70FFF73CFF0D480078AB
:1025D000401C0C49087012A10948FFF768FA10BDA9
:1025E00004000020D6B8CEC6CAB6B1F0B3C9B9A6A9
:1025F000000000000038014049443A256400000012
:102600000048004012000020D6B8CEC6CAB6B1F0CD
:10261000CAA7B0DC000000004572726F72000000B3
:102620002000000008B500200090FFF731F8FFF708
:10263000E7FE4FF4A060FEF7F5FD4FF4E13000F047
:1026400063FC4FF4614000F009FC4FF4165000F0B9
:10265000B5FB4FF47A70FFF7F5FEFEF7A5F8FEF72D
:10266000F7FAFEF7C9FE0120254908600622254930
:102670002548FEF7DDFE25A12548FFF718FA3EE0C4
:102680000120FFF7DFFE2348007860B9BDF80000A5
:10269000411C89B20091C82803DD00200090FFF79B
:1026A00061FFFFF7F5FE00F0D1F900F041F822E0FC
:1026B000FEF746FB18490860084600682A2809D03A
:1026C000412804D043280DD100F070F812E0FFF744
:1026D00003FF0FE000201149087011A10C48FFF71B
:1026E000E6F907E00FA10A48FFF7E1F9C820FFF774
:1026F000A9FE00BF00BF094800780228D8D0BFE774
:10270000A48121420500002000FC000820000000F8
:10271000004800404A000020000000200400002083
:1027200020200000557365722041646D696E0000C1
:1027300010B515480078002825DD14A11548FFF7CD
:10274000B6F90020144908604FF47A70FFF77AFE5A
:102750004FF47A70FFF776FE01201049C1F8A4010A
:1027600009480078012802D100200749087000209C
:102770000B4908804FF4C8710A48FDF7D6FC0AA13E
:102780000448FFF794F910BD040000204F50454E57
:102790000000000000480040A48121420080214246
:1027A00044000020E0060020202000007FB5002427
:1027B0000020029003900090019000BF93A19548E3
:1027C000FFF775F94FF47A70FFF73CFE63E0FEF710
:1027D000B7FA0546062C59DA0A2D4CD2DFE805F087
:1027E000050C131A21282F363D4430222046611C47
:1027F000CCB202A90A543FE031222046611CCCB27F
:1028000002A90A5438E032222046611CCCB202A947
:102810000A5431E033222046611CCCB202A90A548A
:102820002AE034222046611CCCB202A90A5423E0DB
:1028300035222046611CCCB202A90A541CE0362283
:102840002046611CCCB202A90A5415E0372220466A
:10285000611CCCB202A90A540EE038222046611C49
:10286000CCB202A90A5407E039222046611CCCB23E
:1028700002A90A5400E000BF00BF092D06DC002DAC
:1028800004DB02AA64A16348FFF711F9052C02DDFD
:10289000232D00D100E09AE700BF002460A15D482D
:1028A000FFF705F94FF47A70FFF7CCFD61E0FEF712
:1028B00047FA0546062C50DA0A2D4CD2DFE805F01F
:1028C000050C131A21282F363D4430222046611C66
:1028D000CCB20DF800203FE031222046611CCCB282
:1028E0000DF8002038E032222046611CCCB20DF8F1
:1028F000002031E033222046611CCCB20DF80020CC
:102900002AE034222046611CCCB20DF8002023E0DE
:1029100035222046611CCCB20DF800201CE0362286
:102920002046611CCCB20DF8002015E0372220466D
:10293000611CCCB20DF800200EE038222046611C4C
:10294000CCB20DF8002007E039222046611CCCB241
:102950000DF8002000E000BF00BF092D06DC002DAF
:1029600004DB6A4630A12B48FFF7A1F8232D00D1E4
:1029700000E09CE700BF9DF808009DF80010884229
:1029800032D19DF809009DF8011088422CD19DF8A4
:102990000A009DF80210884226D19DF80B009DF890
:1029A0000310884220D19DF80C009DF80410884245
:1029B0001AD19DF80D009DF80510884214D100240D
:1029C00005E002A8005D1A490855601CC4B2062C37
:1029D000F7DB062202A91748FEF73EFD6A4616A15C
:1029E0000C48FFF764F804E06A4615A10948FFF7B0
:1029F0005EF84FF47A70FFF725FD4FF47A70FFF719
:102A000021FD11A10348FFF752F87FBD496E313A0D
:102A10000000000000480040494E313A2573000094
:102A2000496E323A00000000496E323A25730000C8
:102A30000500002000FC0008537563636573730094
:102A40004661696C000000002000000070B50024A1
:102A5000FEF776F90546B7480078062877DA0A2D9A
:102A60006AD2DFE805F0050F19232D37414B555F7A
:102A70003021B04802780078401CAE4B1870AE4848
:102A800081545AE03121AB4802780078401CA94BB0
:102A90001870A948815450E03222A6480178007885
:102AA000401CA44B1870A448425446E03322A1486D
:102AB00001780078401C9F4B18709F4842543CE0BE
:102AC00034219C4802780078401C9A4B18709A4830
:102AD000815432E03521974802780078401C954BAC
:102AE00018709548815428E0362192480278007881
:102AF000401C904B1870904881541EE037218D483F
:102B000002780078401C8B4B18708B48815414E07D
:102B10003821884802780078401C864B1870864817
:102B200081540AE03921834802780078401C814BA7
:102B300018708148815400E000BF00BF092D06DCF9
:102B4000002D04DB7C4A7DA17E48FEF7B0FF79486A
:102B5000007805287DDD232D7BD100207549087084
:102B600075480078312835D173484078322831D102
:102B70007148807833282DD16F48C078342829D106
:102B80006D480079352825D16B484079362821D108
:102B9000002404E0002068490855601CC4B2062CDB
:102BA000F8DB022068490870634A68A16548FEF7AF
:102BB0007EFF0020674908704FF47A70FFF742FCEF
:102BC0004FF47A70FFF73EFC63A15E48FEF76FFF9B
:102BD000012070BD5848007860490978884241D189
:102BE000554840785D49497888423BD152488078C1
:102BF0005A498978884235D14F48C0785749C978B1
:102C000088422FD14C48007954490979884229D10A
:102C10004948407951494979884223D1002404E048
:102C2000002045490855601CC4B2062CF8DB012081
:102C300045490870404A45A14248FEF738FF002048
:102C4000444908704FF47A70FFF7FCFB4FF47A7038
:102C500000E06DE0FFF7F6FB3FA13A48FEF727FFE3
:102C60000120B6E7002404E0002033490855601C29
:102C7000C4B2062CF8DB304A39A13248FEF717FF00
:102C800034480078401C334908703748006808B958
:102C9000012000E00020344908604FF4FA70FFF78B
:102CA000D1FB3248D0F8A00108B9012000E0002093
:102CB0002D4908604FF4FA70FFF7C4FB2B48D0F899
:102CC000A00108B9012000E00020274908604FF466
:102CD000FA70FFF7B7FB2548D0F8A00108B901202A
:102CE00000E00020204908604FF4FA70FFF7AAFBCB
:102CF0001E48D0F8A00108B9012000E000201A49C0
:102D000008604FF4FA70FFF79DFB1848D0F8A00157
:102D100008B9012000E00020134908604FF4FA7060
:102D2000FFF790FB0CA10748FEF7C1FE002050E71B
:102D300000204EE74A0000204B000020494E3A2573
:102D400073000000004800400400002054757265C4
:102D500000000000110000202000000005000020FD
:102D60004572726F72000000A001214200002142F2
:102D700010B50024FDF706FEFDF766FE0E48407A0A
:102D8000B8B96420FFF75EFBFDF748FDFDF75CFE78
:102D9000FDF73CFEFDF758FE0748407A30B906487B
:102DA000C17A807A01EB0024A0B210BD4FF6FF700B
:102DB000FBE74FF6FE70F8E7000E002010B586B076
:102DC0000446012144F20400FEF78CFA4FF400702F
:102DD000ADF8140003208DF8160018208DF81700A8
:102DE00005A91C48FDF750FE4FF48060ADF81400B3
:102DF00004208DF8170005A91648FDF745FE25208B
:102E00008DF8000002208DF801008DF802000120ED
:102E10008DF803006846FEF7CDF901940020ADF867
:102E20000800ADF80A00ADF80C00ADF810000C2059
:102E3000ADF80E0001A90848FEF7C2FD012240F2DC
:102E400025510548FEF797FD01210348FEF702FDD5
:102E500006B010BD000801400038014010B586B032
:102E6000044601210420FEF73DFA01214804FEF743
:102E700019FA2248FEF7FAFC0420ADF810000320EE
:102E80008DF8120018208DF8130004A91C48FDF7D6
:102E9000FBFD0820ADF8100048208DF8130004A9B0
:102EA0001848FDF7F1FD00940020ADF80400ADF8DE
:102EB0000600ADF80800ADF80C000C20ADF80A00D3
:102EC00069460E48FEF77CFD01210C48FEF7C2FC66
:102ED000012240F225510948FEF74DFD26208DF8CC
:102EE000140001208DF815008DF816008DF81700DC
:102EF00005A8FEF75FF906B010BD000000440040D1
:102F000000080140000C014010B586B004460121C4
:102F10000820FEF7E7F901218804FEF7C3F94FF412
:102F20008060ADF8140003208DF8160018208DF88D
:102F3000170005A91C48FDF7A7FD4FF40060ADF888
:102F4000140004208DF8170005A91748FDF79CFD13
:102F500027208DF8000000208DF8010001208DF859
:102F600002008DF803006846FEF724F90194002062
:102F7000ADF80800ADF80A00ADF80C00ADF810008F
:102F80000C20ADF80E0001A90848FEF719FD01223A
:102F900040F225510548FEF7EEFC01210348FEF7FB
:102FA00059FC06B010BD0000000C01400048004074
:102FB000D02F000800000020A0000000381B0008EF
:102FC00070300008A000002070110000481B0008AD
:102FD00000000000000000000000003132333435F2
:102FE0003600000000A24A040000000000000000BB
:102FF000010203040607080900000000010203049F
:103000000102030406070809020406080000000084
:1030100000000000000000000000000000000000B0
:103020000000000000000100031D0021EF01FFFF70
:10303000FFFF010003010005010008040100000377
:10304000E700F80100040201000801000402020088
:10305000090100030500090100030D00110100072B
:103060000C0000000100150100060601000B00190C
:0400000508000101ED
:00000001FF
